{
  "_format": "hh-sol-artifact-1",
  "contractName": "Lossy",
  "sourceName": "contracts/Lossy.sol",
  "abi": [
    {
      "inputs": [
        {
          "internalType": "uint256",
          "name": "_frequency",
          "type": "uint256"
        },
        {
          "internalType": "address payable",
          "name": "_recipient",
          "type": "address"
        }
      ],
      "stateMutability": "nonpayable",
      "type": "constructor"
    },
    {
      "inputs": [],
      "name": "checkIn",
      "outputs": [],
      "stateMutability": "nonpayable",
      "type": "function"
    },
    {
      "inputs": [],
      "name": "frequency",
      "outputs": [
        {
          "internalType": "uint256",
          "name": "",
          "type": "uint256"
        }
      ],
      "stateMutability": "view",
      "type": "function"
    },
    {
      "inputs": [],
      "name": "increaseRate",
      "outputs": [
        {
          "internalType": "uint256",
          "name": "",
          "type": "uint256"
        }
      ],
      "stateMutability": "view",
      "type": "function"
    },
    {
      "inputs": [],
      "name": "lastCheckIn",
      "outputs": [
        {
          "internalType": "uint256",
          "name": "",
          "type": "uint256"
        }
      ],
      "stateMutability": "view",
      "type": "function"
    },
    {
      "inputs": [],
      "name": "rate",
      "outputs": [
        {
          "internalType": "uint256",
          "name": "",
          "type": "uint256"
        }
      ],
      "stateMutability": "view",
      "type": "function"
    },
    {
      "inputs": [],
      "name": "recipient",
      "outputs": [
        {
          "internalType": "address payable",
          "name": "",
          "type": "address"
        }
      ],
      "stateMutability": "view",
      "type": "function"
    },
    {
      "inputs": [
        {
          "internalType": "uint256",
          "name": "_freq",
          "type": "uint256"
        }
      ],
      "name": "setFrequency",
      "outputs": [],
      "stateMutability": "nonpayable",
      "type": "function"
    },
    {
      "inputs": [
        {
          "internalType": "string",
          "name": "planType",
          "type": "string"
        }
      ],
      "name": "setPlan",
      "outputs": [],
      "stateMutability": "nonpayable",
      "type": "function"
    },
    {
      "inputs": [
        {
          "internalType": "address payable",
          "name": "_recipient",
          "type": "address"
        }
      ],
      "name": "setRecipient",
      "outputs": [],
      "stateMutability": "nonpayable",
      "type": "function"
    },
    {
      "inputs": [],
      "name": "startDate",
      "outputs": [
        {
          "internalType": "uint256",
          "name": "",
          "type": "uint256"
        }
      ],
      "stateMutability": "view",
      "type": "function"
    },
    {
      "inputs": [],
      "name": "userCheckedin",
      "outputs": [
        {
          "internalType": "bool",
          "name": "",
          "type": "bool"
        }
      ],
      "stateMutability": "nonpayable",
      "type": "function"
    }
  ],
  "bytecode": "0x608060405234801561001057600080fd5b50604051610b45380380610b45833981810160405281019061003291906100b9565b81600281905550426003819055504260048190555080600560006101000a81548173ffffffffffffffffffffffffffffffffffffffff021916908373ffffffffffffffffffffffffffffffffffffffff160217905550505061015f565b60008151905061009e81610131565b92915050565b6000815190506100b381610148565b92915050565b600080604083850312156100cc57600080fd5b60006100da858286016100a4565b92505060206100eb8582860161008f565b9150509250929050565b600061010082610107565b9050919050565b600073ffffffffffffffffffffffffffffffffffffffff82169050919050565b6000819050919050565b61013a816100f5565b811461014557600080fd5b50565b61015181610127565b811461015c57600080fd5b50565b6109d78061016e6000396000f3fe608060405234801561001057600080fd5b50600436106100a95760003560e01c80634a07fb45116100715780634a07fb451461012e5780636086cea51461014a57806366d003ac14610168578063db78dabd14610186578063ead50da3146101a4578063f426f03a146101c2576100a9565b80630b97bc86146100ae578063183ff085146100cc5780632a4b122f146100d65780632c4e722e146100f45780633bbed4a014610112575b600080fd5b6100b66101de565b6040516100c39190610660565b60405180910390f35b6100d46101e4565b005b6100de6101ed565b6040516100eb9190610660565b60405180910390f35b6100fc6101f3565b6040516101099190610660565b60405180910390f35b61012c600480360381019061012791906104b2565b6101f9565b005b610148600480360381019061014391906104db565b61023d565b005b61015261031f565b60405161015f9190610645565b60405180910390f35b6101706103e4565b60405161017d919061062a565b60405180910390f35b61018e61040a565b60405161019b9190610660565b60405180910390f35b6101ac610410565b6040516101b99190610660565b60405180910390f35b6101dc60048036038101906101d7919061051c565b610416565b005b60035481565b42600481905550565b60015481565b60005481565b80600560006101000a81548173ffffffffffffffffffffffffffffffffffffffff021916908373ffffffffffffffffffffffffffffffffffffffff16021790555050565b60405160200161024c90610615565b604051602081830303815290604052805190602001208160405160200161027391906105e9565b6040516020818303038152906040528051906020012014156102a35760086000819055506002808190555061031c565b6040516020016102b290610600565b60405160208183030381529060405280519060200120816040516020016102d991906105e9565b60405160208183030381529060405280519060200120141561030a576004600081905550600460028190555061031b565b600260008190555060086002819055505b5b50565b60008060025460045461033291906106e7565b90504281111561034d574260048190555060019150506103e1565b60004790506000606460005483610364919061076e565b61036e919061073d565b9050600560009054906101000a900473ffffffffffffffffffffffffffffffffffffffff1673ffffffffffffffffffffffffffffffffffffffff166108fc829081150290604051600060405180830381858888f193505050501580156103d8573d6000803e3d6000fd5b50600093505050505b90565b600560009054906101000a900473ffffffffffffffffffffffffffffffffffffffff1681565b60045481565b60025481565b8060028190555050565b600061043361042e846106a0565b61067b565b90508281526020810184848401111561044b57600080fd5b610456848285610810565b509392505050565b60008135905061046d81610973565b92915050565b600082601f83011261048457600080fd5b8135610494848260208601610420565b91505092915050565b6000813590506104ac8161098a565b92915050565b6000602082840312156104c457600080fd5b60006104d28482850161045e565b91505092915050565b6000602082840312156104ed57600080fd5b600082013567ffffffffffffffff81111561050757600080fd5b61051384828501610473565b91505092915050565b60006020828403121561052e57600080fd5b600061053c8482850161049d565b91505092915050565b61054e816107c8565b82525050565b61055d816107da565b82525050565b600061056e826106d1565b61057881856106dc565b935061058881856020860161081f565b80840191505092915050565b60006105a16006836106dc565b91506105ac82610921565b600682019050919050565b60006105c46005836106dc565b91506105cf8261094a565b600582019050919050565b6105e381610806565b82525050565b60006105f58284610563565b915081905092915050565b600061060b82610594565b9150819050919050565b6000610620826105b7565b9150819050919050565b600060208201905061063f6000830184610545565b92915050565b600060208201905061065a6000830184610554565b92915050565b600060208201905061067560008301846105da565b92915050565b6000610685610696565b90506106918282610852565b919050565b6000604051905090565b600067ffffffffffffffff8211156106bb576106ba6108e1565b5b6106c482610910565b9050602081019050919050565b600081519050919050565b600081905092915050565b60006106f282610806565b91506106fd83610806565b9250827fffffffffffffffffffffffffffffffffffffffffffffffffffffffffffffffff0382111561073257610731610883565b5b828201905092915050565b600061074882610806565b915061075383610806565b925082610763576107626108b2565b5b828204905092915050565b600061077982610806565b915061078483610806565b9250817fffffffffffffffffffffffffffffffffffffffffffffffffffffffffffffffff04831182151516156107bd576107bc610883565b5b828202905092915050565b60006107d3826107e6565b9050919050565b60008115159050919050565b600073ffffffffffffffffffffffffffffffffffffffff82169050919050565b6000819050919050565b82818337600083830152505050565b60005b8381101561083d578082015181840152602081019050610822565b8381111561084c576000848401525b50505050565b61085b82610910565b810181811067ffffffffffffffff8211171561087a576108796108e1565b5b80604052505050565b7f4e487b7100000000000000000000000000000000000000000000000000000000600052601160045260246000fd5b7f4e487b7100000000000000000000000000000000000000000000000000000000600052601260045260246000fd5b7f4e487b7100000000000000000000000000000000000000000000000000000000600052604160045260246000fd5b6000601f19601f8301169050919050565b7f4d454449554d0000000000000000000000000000000000000000000000000000600082015250565b7f53484f5254000000000000000000000000000000000000000000000000000000600082015250565b61097c816107c8565b811461098757600080fd5b50565b61099381610806565b811461099e57600080fd5b5056fea2646970667358221220772f96b10231fe3bbfd6dfcf23bea6e83130daab977b8dade013685f6db4da5764736f6c63430008040033",
  "linkReferences": {},
  "deployedLinkReferences": {}
}