{
  "_format": "hh-sol-artifact-1",
  "contractName": "Lossy",
  "sourceName": "contracts/Lossy.sol",
  "abi": [
    {
      "inputs": [
        {
          "internalType": "uint256",
          "name": "_frequency",
          "type": "uint256"
        },
        {
          "internalType": "address payable",
          "name": "_recipient",
          "type": "address"
        }
      ],
      "stateMutability": "nonpayable",
      "type": "constructor"
    },
    {
      "inputs": [],
      "name": "checkIn",
      "outputs": [],
      "stateMutability": "nonpayable",
      "type": "function"
    },
    {
      "inputs": [],
      "name": "frequency",
      "outputs": [
        {
          "internalType": "uint256",
          "name": "",
          "type": "uint256"
        }
      ],
      "stateMutability": "view",
      "type": "function"
    },
    {
      "inputs": [],
      "name": "increaseRate",
      "outputs": [
        {
          "internalType": "uint256",
          "name": "",
          "type": "uint256"
        }
      ],
      "stateMutability": "view",
      "type": "function"
    },
    {
      "inputs": [],
      "name": "lastCheckIn",
      "outputs": [
        {
          "internalType": "uint256",
          "name": "",
          "type": "uint256"
        }
      ],
      "stateMutability": "view",
      "type": "function"
    },
    {
      "inputs": [],
      "name": "rate",
      "outputs": [
        {
          "internalType": "uint256",
          "name": "",
          "type": "uint256"
        }
      ],
      "stateMutability": "view",
      "type": "function"
    },
    {
      "inputs": [],
      "name": "recipient",
      "outputs": [
        {
          "internalType": "address payable",
          "name": "",
          "type": "address"
        }
      ],
      "stateMutability": "view",
      "type": "function"
    },
    {
      "inputs": [
        {
          "internalType": "uint256",
          "name": "_freq",
          "type": "uint256"
        }
      ],
      "name": "setFrequency",
      "outputs": [],
      "stateMutability": "nonpayable",
      "type": "function"
    },
    {
      "inputs": [
        {
          "internalType": "enum Lossy.DispersementPlan",
          "name": "planType",
          "type": "uint8"
        }
      ],
      "name": "setPlan",
      "outputs": [],
      "stateMutability": "nonpayable",
      "type": "function"
    },
    {
      "inputs": [
        {
          "internalType": "address payable",
          "name": "_recipient",
          "type": "address"
        }
      ],
      "name": "setRecipient",
      "outputs": [],
      "stateMutability": "nonpayable",
      "type": "function"
    },
    {
      "inputs": [],
      "name": "startDate",
      "outputs": [
        {
          "internalType": "uint256",
          "name": "",
          "type": "uint256"
        }
      ],
      "stateMutability": "view",
      "type": "function"
    },
    {
      "inputs": [],
      "name": "userCheckedin",
      "outputs": [
        {
          "internalType": "bool",
          "name": "",
          "type": "bool"
        }
      ],
      "stateMutability": "nonpayable",
      "type": "function"
    }
  ],
  "bytecode": "0x608060405234801561001057600080fd5b5060405161095f38038061095f833981810160405281019061003291906100b9565b81600281905550426003819055504260048190555080600560006101000a81548173ffffffffffffffffffffffffffffffffffffffff021916908373ffffffffffffffffffffffffffffffffffffffff160217905550505061015f565b60008151905061009e81610131565b92915050565b6000815190506100b381610148565b92915050565b600080604083850312156100cc57600080fd5b60006100da858286016100a4565b92505060206100eb8582860161008f565b9150509250929050565b600061010082610107565b9050919050565b600073ffffffffffffffffffffffffffffffffffffffff82169050919050565b6000819050919050565b61013a816100f5565b811461014557600080fd5b50565b61015181610127565b811461015c57600080fd5b50565b6107f18061016e6000396000f3fe608060405234801561001057600080fd5b50600436106100a95760003560e01c80633c101c8f116100715780633c101c8f1461012e5780636086cea51461014a57806366d003ac14610168578063db78dabd14610186578063ead50da3146101a4578063f426f03a146101c2576100a9565b80630b97bc86146100ae578063183ff085146100cc5780632a4b122f146100d65780632c4e722e146100f45780633bbed4a014610112575b600080fd5b6100b66101de565b6040516100c391906105db565b60405180910390f35b6100d46101e4565b005b6100de6101ed565b6040516100eb91906105db565b60405180910390f35b6100fc6101f3565b60405161010991906105db565b60405180910390f35b61012c600480360381019061012791906104fd565b6101f9565b005b61014860048036038101906101439190610526565b61023d565b005b6101526103bd565b60405161015f91906105c0565b60405180910390f35b610170610482565b60405161017d91906105a5565b60405180910390f35b61018e6104a8565b60405161019b91906105db565b60405180910390f35b6101ac6104ae565b6040516101b991906105db565b60405180910390f35b6101dc60048036038101906101d7919061054f565b6104b4565b005b60035481565b42600481905550565b60015481565b60005481565b80600560006101000a81548173ffffffffffffffffffffffffffffffffffffffff021916908373ffffffffffffffffffffffffffffffffffffffff16021790555050565b80600560146101000a81548160ff02191690836002811115610288577f4e487b7100000000000000000000000000000000000000000000000000000000600052602160045260246000fd5b0217905550600060028111156102c7577f4e487b7100000000000000000000000000000000000000000000000000000000600052602160045260246000fd5b816002811115610300577f4e487b7100000000000000000000000000000000000000000000000000000000600052602160045260246000fd5b141561031a576008600081905550600280819055506103ba565b60016002811115610354577f4e487b7100000000000000000000000000000000000000000000000000000000600052602160045260246000fd5b81600281111561038d577f4e487b7100000000000000000000000000000000000000000000000000000000600052602160045260246000fd5b14156103a857600460008190555060046002819055506103b9565b600260008190555060086002819055505b5b50565b6000806002546004546103d091906105f6565b9050428111156103eb5742600481905550600191505061047f565b60004790506000606460005483610402919061067d565b61040c919061064c565b9050600560009054906101000a900473ffffffffffffffffffffffffffffffffffffffff1673ffffffffffffffffffffffffffffffffffffffff166108fc829081150290604051600060405180830381858888f19350505050158015610476573d6000803e3d6000fd5b50600093505050505b90565b600560009054906101000a900473ffffffffffffffffffffffffffffffffffffffff1681565b60045481565b60025481565b8060028190555050565b6000813590506104cd8161077d565b92915050565b6000813590506104e281610794565b92915050565b6000813590506104f7816107a4565b92915050565b60006020828403121561050f57600080fd5b600061051d848285016104be565b91505092915050565b60006020828403121561053857600080fd5b6000610546848285016104d3565b91505092915050565b60006020828403121561056157600080fd5b600061056f848285016104e8565b91505092915050565b610581816106d7565b82525050565b610590816106e9565b82525050565b61059f81610715565b82525050565b60006020820190506105ba6000830184610578565b92915050565b60006020820190506105d56000830184610587565b92915050565b60006020820190506105f06000830184610596565b92915050565b600061060182610715565b915061060c83610715565b9250827fffffffffffffffffffffffffffffffffffffffffffffffffffffffffffffffff038211156106415761064061071f565b5b828201905092915050565b600061065782610715565b915061066283610715565b9250826106725761067161074e565b5b828204905092915050565b600061068882610715565b915061069383610715565b9250817fffffffffffffffffffffffffffffffffffffffffffffffffffffffffffffffff04831182151516156106cc576106cb61071f565b5b828202905092915050565b60006106e2826106f5565b9050919050565b60008115159050919050565b600073ffffffffffffffffffffffffffffffffffffffff82169050919050565b6000819050919050565b7f4e487b7100000000000000000000000000000000000000000000000000000000600052601160045260246000fd5b7f4e487b7100000000000000000000000000000000000000000000000000000000600052601260045260246000fd5b610786816106d7565b811461079157600080fd5b50565b600381106107a157600080fd5b50565b6107ad81610715565b81146107b857600080fd5b5056fea2646970667358221220ebdf5f33529c1f416054d935935b0e25460ab9fa310b928a582eb66f9798689e64736f6c63430008040033",
  "linkReferences": {},
  "deployedLinkReferences": {}
}