{
  "contracts/Lossy.sol": {
    "Lossy": {
      "abi": [
        {
          "inputs": [
            {
              "internalType": "uint256",
              "name": "_frequency",
              "type": "uint256"
            },
            {
              "internalType": "address payable",
              "name": "_recipient",
              "type": "address"
            }
          ],
          "stateMutability": "nonpayable",
          "type": "constructor"
        },
        {
          "inputs": [],
          "name": "checkIn",
          "outputs": [],
          "stateMutability": "nonpayable",
          "type": "function"
        },
        {
          "inputs": [],
          "name": "frequency",
          "outputs": [
            {
              "internalType": "uint256",
              "name": "",
              "type": "uint256"
            }
          ],
          "stateMutability": "view",
          "type": "function"
        },
        {
          "inputs": [],
          "name": "increaseRate",
          "outputs": [
            {
              "internalType": "uint256",
              "name": "",
              "type": "uint256"
            }
          ],
          "stateMutability": "view",
          "type": "function"
        },
        {
          "inputs": [],
          "name": "lastCheckIn",
          "outputs": [
            {
              "internalType": "uint256",
              "name": "",
              "type": "uint256"
            }
          ],
          "stateMutability": "view",
          "type": "function"
        },
        {
          "inputs": [],
          "name": "rate",
          "outputs": [
            {
              "internalType": "uint256",
              "name": "",
              "type": "uint256"
            }
          ],
          "stateMutability": "view",
          "type": "function"
        },
        {
          "inputs": [],
          "name": "recipient",
          "outputs": [
            {
              "internalType": "address payable",
              "name": "",
              "type": "address"
            }
          ],
          "stateMutability": "view",
          "type": "function"
        },
        {
          "inputs": [
            {
              "internalType": "uint256",
              "name": "_freq",
              "type": "uint256"
            }
          ],
          "name": "setFrequency",
          "outputs": [],
          "stateMutability": "nonpayable",
          "type": "function"
        },
        {
          "inputs": [
            {
              "internalType": "enum Lossy.DispersementPlan",
              "name": "planType",
              "type": "uint8"
            }
          ],
          "name": "setPlan",
          "outputs": [],
          "stateMutability": "nonpayable",
          "type": "function"
        },
        {
          "inputs": [
            {
              "internalType": "address payable",
              "name": "_recipient",
              "type": "address"
            }
          ],
          "name": "setRecipient",
          "outputs": [],
          "stateMutability": "nonpayable",
          "type": "function"
        },
        {
          "inputs": [],
          "name": "startDate",
          "outputs": [
            {
              "internalType": "uint256",
              "name": "",
              "type": "uint256"
            }
          ],
          "stateMutability": "view",
          "type": "function"
        },
        {
          "inputs": [],
          "name": "userCheckedin",
          "outputs": [
            {
              "internalType": "bool",
              "name": "",
              "type": "bool"
            }
          ],
          "stateMutability": "nonpayable",
          "type": "function"
        }
      ],
      "evm": {
        "bytecode": {
          "linkReferences": {},
          "object": "608060405234801561001057600080fd5b5060405161095f38038061095f833981810160405281019061003291906100b9565b81600281905550426003819055504260048190555080600560006101000a81548173ffffffffffffffffffffffffffffffffffffffff021916908373ffffffffffffffffffffffffffffffffffffffff160217905550505061015f565b60008151905061009e81610131565b92915050565b6000815190506100b381610148565b92915050565b600080604083850312156100cc57600080fd5b60006100da858286016100a4565b92505060206100eb8582860161008f565b9150509250929050565b600061010082610107565b9050919050565b600073ffffffffffffffffffffffffffffffffffffffff82169050919050565b6000819050919050565b61013a816100f5565b811461014557600080fd5b50565b61015181610127565b811461015c57600080fd5b50565b6107f18061016e6000396000f3fe608060405234801561001057600080fd5b50600436106100a95760003560e01c80633c101c8f116100715780633c101c8f1461012e5780636086cea51461014a57806366d003ac14610168578063db78dabd14610186578063ead50da3146101a4578063f426f03a146101c2576100a9565b80630b97bc86146100ae578063183ff085146100cc5780632a4b122f146100d65780632c4e722e146100f45780633bbed4a014610112575b600080fd5b6100b66101de565b6040516100c391906105db565b60405180910390f35b6100d46101e4565b005b6100de6101ed565b6040516100eb91906105db565b60405180910390f35b6100fc6101f3565b60405161010991906105db565b60405180910390f35b61012c600480360381019061012791906104fd565b6101f9565b005b61014860048036038101906101439190610526565b61023d565b005b6101526103bd565b60405161015f91906105c0565b60405180910390f35b610170610482565b60405161017d91906105a5565b60405180910390f35b61018e6104a8565b60405161019b91906105db565b60405180910390f35b6101ac6104ae565b6040516101b991906105db565b60405180910390f35b6101dc60048036038101906101d7919061054f565b6104b4565b005b60035481565b42600481905550565b60015481565b60005481565b80600560006101000a81548173ffffffffffffffffffffffffffffffffffffffff021916908373ffffffffffffffffffffffffffffffffffffffff16021790555050565b80600560146101000a81548160ff02191690836002811115610288577f4e487b7100000000000000000000000000000000000000000000000000000000600052602160045260246000fd5b0217905550600060028111156102c7577f4e487b7100000000000000000000000000000000000000000000000000000000600052602160045260246000fd5b816002811115610300577f4e487b7100000000000000000000000000000000000000000000000000000000600052602160045260246000fd5b141561031a576008600081905550600280819055506103ba565b60016002811115610354577f4e487b7100000000000000000000000000000000000000000000000000000000600052602160045260246000fd5b81600281111561038d577f4e487b7100000000000000000000000000000000000000000000000000000000600052602160045260246000fd5b14156103a857600460008190555060046002819055506103b9565b600260008190555060086002819055505b5b50565b6000806002546004546103d091906105f6565b9050428111156103eb5742600481905550600191505061047f565b60004790506000606460005483610402919061067d565b61040c919061064c565b9050600560009054906101000a900473ffffffffffffffffffffffffffffffffffffffff1673ffffffffffffffffffffffffffffffffffffffff166108fc829081150290604051600060405180830381858888f19350505050158015610476573d6000803e3d6000fd5b50600093505050505b90565b600560009054906101000a900473ffffffffffffffffffffffffffffffffffffffff1681565b60045481565b60025481565b8060028190555050565b6000813590506104cd8161077d565b92915050565b6000813590506104e281610794565b92915050565b6000813590506104f7816107a4565b92915050565b60006020828403121561050f57600080fd5b600061051d848285016104be565b91505092915050565b60006020828403121561053857600080fd5b6000610546848285016104d3565b91505092915050565b60006020828403121561056157600080fd5b600061056f848285016104e8565b91505092915050565b610581816106d7565b82525050565b610590816106e9565b82525050565b61059f81610715565b82525050565b60006020820190506105ba6000830184610578565b92915050565b60006020820190506105d56000830184610587565b92915050565b60006020820190506105f06000830184610596565b92915050565b600061060182610715565b915061060c83610715565b9250827fffffffffffffffffffffffffffffffffffffffffffffffffffffffffffffffff038211156106415761064061071f565b5b828201905092915050565b600061065782610715565b915061066283610715565b9250826106725761067161074e565b5b828204905092915050565b600061068882610715565b915061069383610715565b9250817fffffffffffffffffffffffffffffffffffffffffffffffffffffffffffffffff04831182151516156106cc576106cb61071f565b5b828202905092915050565b60006106e2826106f5565b9050919050565b60008115159050919050565b600073ffffffffffffffffffffffffffffffffffffffff82169050919050565b6000819050919050565b7f4e487b7100000000000000000000000000000000000000000000000000000000600052601160045260246000fd5b7f4e487b7100000000000000000000000000000000000000000000000000000000600052601260045260246000fd5b610786816106d7565b811461079157600080fd5b50565b600381106107a157600080fd5b50565b6107ad81610715565b81146107b857600080fd5b5056fea2646970667358221220f3e14764d329aca924cfa62a6f928550d3438e29e860cef623f0cda2bf7aec9364736f6c63430008040033",
          "opcodes": "PUSH1 0x80 PUSH1 0x40 MSTORE CALLVALUE DUP1 ISZERO PUSH2 0x10 JUMPI PUSH1 0x0 DUP1 REVERT JUMPDEST POP PUSH1 0x40 MLOAD PUSH2 0x95F CODESIZE SUB DUP1 PUSH2 0x95F DUP4 CODECOPY DUP2 DUP2 ADD PUSH1 0x40 MSTORE DUP2 ADD SWAP1 PUSH2 0x32 SWAP2 SWAP1 PUSH2 0xB9 JUMP JUMPDEST DUP2 PUSH1 0x2 DUP2 SWAP1 SSTORE POP TIMESTAMP PUSH1 0x3 DUP2 SWAP1 SSTORE POP TIMESTAMP PUSH1 0x4 DUP2 SWAP1 SSTORE POP DUP1 PUSH1 0x5 PUSH1 0x0 PUSH2 0x100 EXP DUP2 SLOAD DUP2 PUSH20 0xFFFFFFFFFFFFFFFFFFFFFFFFFFFFFFFFFFFFFFFF MUL NOT AND SWAP1 DUP4 PUSH20 0xFFFFFFFFFFFFFFFFFFFFFFFFFFFFFFFFFFFFFFFF AND MUL OR SWAP1 SSTORE POP POP POP PUSH2 0x15F JUMP JUMPDEST PUSH1 0x0 DUP2 MLOAD SWAP1 POP PUSH2 0x9E DUP2 PUSH2 0x131 JUMP JUMPDEST SWAP3 SWAP2 POP POP JUMP JUMPDEST PUSH1 0x0 DUP2 MLOAD SWAP1 POP PUSH2 0xB3 DUP2 PUSH2 0x148 JUMP JUMPDEST SWAP3 SWAP2 POP POP JUMP JUMPDEST PUSH1 0x0 DUP1 PUSH1 0x40 DUP4 DUP6 SUB SLT ISZERO PUSH2 0xCC JUMPI PUSH1 0x0 DUP1 REVERT JUMPDEST PUSH1 0x0 PUSH2 0xDA DUP6 DUP3 DUP7 ADD PUSH2 0xA4 JUMP JUMPDEST SWAP3 POP POP PUSH1 0x20 PUSH2 0xEB DUP6 DUP3 DUP7 ADD PUSH2 0x8F JUMP JUMPDEST SWAP2 POP POP SWAP3 POP SWAP3 SWAP1 POP JUMP JUMPDEST PUSH1 0x0 PUSH2 0x100 DUP3 PUSH2 0x107 JUMP JUMPDEST SWAP1 POP SWAP2 SWAP1 POP JUMP JUMPDEST PUSH1 0x0 PUSH20 0xFFFFFFFFFFFFFFFFFFFFFFFFFFFFFFFFFFFFFFFF DUP3 AND SWAP1 POP SWAP2 SWAP1 POP JUMP JUMPDEST PUSH1 0x0 DUP2 SWAP1 POP SWAP2 SWAP1 POP JUMP JUMPDEST PUSH2 0x13A DUP2 PUSH2 0xF5 JUMP JUMPDEST DUP2 EQ PUSH2 0x145 JUMPI PUSH1 0x0 DUP1 REVERT JUMPDEST POP JUMP JUMPDEST PUSH2 0x151 DUP2 PUSH2 0x127 JUMP JUMPDEST DUP2 EQ PUSH2 0x15C JUMPI PUSH1 0x0 DUP1 REVERT JUMPDEST POP JUMP JUMPDEST PUSH2 0x7F1 DUP1 PUSH2 0x16E PUSH1 0x0 CODECOPY PUSH1 0x0 RETURN INVALID PUSH1 0x80 PUSH1 0x40 MSTORE CALLVALUE DUP1 ISZERO PUSH2 0x10 JUMPI PUSH1 0x0 DUP1 REVERT JUMPDEST POP PUSH1 0x4 CALLDATASIZE LT PUSH2 0xA9 JUMPI PUSH1 0x0 CALLDATALOAD PUSH1 0xE0 SHR DUP1 PUSH4 0x3C101C8F GT PUSH2 0x71 JUMPI DUP1 PUSH4 0x3C101C8F EQ PUSH2 0x12E JUMPI DUP1 PUSH4 0x6086CEA5 EQ PUSH2 0x14A JUMPI DUP1 PUSH4 0x66D003AC EQ PUSH2 0x168 JUMPI DUP1 PUSH4 0xDB78DABD EQ PUSH2 0x186 JUMPI DUP1 PUSH4 0xEAD50DA3 EQ PUSH2 0x1A4 JUMPI DUP1 PUSH4 0xF426F03A EQ PUSH2 0x1C2 JUMPI PUSH2 0xA9 JUMP JUMPDEST DUP1 PUSH4 0xB97BC86 EQ PUSH2 0xAE JUMPI DUP1 PUSH4 0x183FF085 EQ PUSH2 0xCC JUMPI DUP1 PUSH4 0x2A4B122F EQ PUSH2 0xD6 JUMPI DUP1 PUSH4 0x2C4E722E EQ PUSH2 0xF4 JUMPI DUP1 PUSH4 0x3BBED4A0 EQ PUSH2 0x112 JUMPI JUMPDEST PUSH1 0x0 DUP1 REVERT JUMPDEST PUSH2 0xB6 PUSH2 0x1DE JUMP JUMPDEST PUSH1 0x40 MLOAD PUSH2 0xC3 SWAP2 SWAP1 PUSH2 0x5DB JUMP JUMPDEST PUSH1 0x40 MLOAD DUP1 SWAP2 SUB SWAP1 RETURN JUMPDEST PUSH2 0xD4 PUSH2 0x1E4 JUMP JUMPDEST STOP JUMPDEST PUSH2 0xDE PUSH2 0x1ED JUMP JUMPDEST PUSH1 0x40 MLOAD PUSH2 0xEB SWAP2 SWAP1 PUSH2 0x5DB JUMP JUMPDEST PUSH1 0x40 MLOAD DUP1 SWAP2 SUB SWAP1 RETURN JUMPDEST PUSH2 0xFC PUSH2 0x1F3 JUMP JUMPDEST PUSH1 0x40 MLOAD PUSH2 0x109 SWAP2 SWAP1 PUSH2 0x5DB JUMP JUMPDEST PUSH1 0x40 MLOAD DUP1 SWAP2 SUB SWAP1 RETURN JUMPDEST PUSH2 0x12C PUSH1 0x4 DUP1 CALLDATASIZE SUB DUP2 ADD SWAP1 PUSH2 0x127 SWAP2 SWAP1 PUSH2 0x4FD JUMP JUMPDEST PUSH2 0x1F9 JUMP JUMPDEST STOP JUMPDEST PUSH2 0x148 PUSH1 0x4 DUP1 CALLDATASIZE SUB DUP2 ADD SWAP1 PUSH2 0x143 SWAP2 SWAP1 PUSH2 0x526 JUMP JUMPDEST PUSH2 0x23D JUMP JUMPDEST STOP JUMPDEST PUSH2 0x152 PUSH2 0x3BD JUMP JUMPDEST PUSH1 0x40 MLOAD PUSH2 0x15F SWAP2 SWAP1 PUSH2 0x5C0 JUMP JUMPDEST PUSH1 0x40 MLOAD DUP1 SWAP2 SUB SWAP1 RETURN JUMPDEST PUSH2 0x170 PUSH2 0x482 JUMP JUMPDEST PUSH1 0x40 MLOAD PUSH2 0x17D SWAP2 SWAP1 PUSH2 0x5A5 JUMP JUMPDEST PUSH1 0x40 MLOAD DUP1 SWAP2 SUB SWAP1 RETURN JUMPDEST PUSH2 0x18E PUSH2 0x4A8 JUMP JUMPDEST PUSH1 0x40 MLOAD PUSH2 0x19B SWAP2 SWAP1 PUSH2 0x5DB JUMP JUMPDEST PUSH1 0x40 MLOAD DUP1 SWAP2 SUB SWAP1 RETURN JUMPDEST PUSH2 0x1AC PUSH2 0x4AE JUMP JUMPDEST PUSH1 0x40 MLOAD PUSH2 0x1B9 SWAP2 SWAP1 PUSH2 0x5DB JUMP JUMPDEST PUSH1 0x40 MLOAD DUP1 SWAP2 SUB SWAP1 RETURN JUMPDEST PUSH2 0x1DC PUSH1 0x4 DUP1 CALLDATASIZE SUB DUP2 ADD SWAP1 PUSH2 0x1D7 SWAP2 SWAP1 PUSH2 0x54F JUMP JUMPDEST PUSH2 0x4B4 JUMP JUMPDEST STOP JUMPDEST PUSH1 0x3 SLOAD DUP2 JUMP JUMPDEST TIMESTAMP PUSH1 0x4 DUP2 SWAP1 SSTORE POP JUMP JUMPDEST PUSH1 0x1 SLOAD DUP2 JUMP JUMPDEST PUSH1 0x0 SLOAD DUP2 JUMP JUMPDEST DUP1 PUSH1 0x5 PUSH1 0x0 PUSH2 0x100 EXP DUP2 SLOAD DUP2 PUSH20 0xFFFFFFFFFFFFFFFFFFFFFFFFFFFFFFFFFFFFFFFF MUL NOT AND SWAP1 DUP4 PUSH20 0xFFFFFFFFFFFFFFFFFFFFFFFFFFFFFFFFFFFFFFFF AND MUL OR SWAP1 SSTORE POP POP JUMP JUMPDEST DUP1 PUSH1 0x5 PUSH1 0x14 PUSH2 0x100 EXP DUP2 SLOAD DUP2 PUSH1 0xFF MUL NOT AND SWAP1 DUP4 PUSH1 0x2 DUP2 GT ISZERO PUSH2 0x288 JUMPI PUSH32 0x4E487B7100000000000000000000000000000000000000000000000000000000 PUSH1 0x0 MSTORE PUSH1 0x21 PUSH1 0x4 MSTORE PUSH1 0x24 PUSH1 0x0 REVERT JUMPDEST MUL OR SWAP1 SSTORE POP PUSH1 0x0 PUSH1 0x2 DUP2 GT ISZERO PUSH2 0x2C7 JUMPI PUSH32 0x4E487B7100000000000000000000000000000000000000000000000000000000 PUSH1 0x0 MSTORE PUSH1 0x21 PUSH1 0x4 MSTORE PUSH1 0x24 PUSH1 0x0 REVERT JUMPDEST DUP2 PUSH1 0x2 DUP2 GT ISZERO PUSH2 0x300 JUMPI PUSH32 0x4E487B7100000000000000000000000000000000000000000000000000000000 PUSH1 0x0 MSTORE PUSH1 0x21 PUSH1 0x4 MSTORE PUSH1 0x24 PUSH1 0x0 REVERT JUMPDEST EQ ISZERO PUSH2 0x31A JUMPI PUSH1 0x8 PUSH1 0x0 DUP2 SWAP1 SSTORE POP PUSH1 0x2 DUP1 DUP2 SWAP1 SSTORE POP PUSH2 0x3BA JUMP JUMPDEST PUSH1 0x1 PUSH1 0x2 DUP2 GT ISZERO PUSH2 0x354 JUMPI PUSH32 0x4E487B7100000000000000000000000000000000000000000000000000000000 PUSH1 0x0 MSTORE PUSH1 0x21 PUSH1 0x4 MSTORE PUSH1 0x24 PUSH1 0x0 REVERT JUMPDEST DUP2 PUSH1 0x2 DUP2 GT ISZERO PUSH2 0x38D JUMPI PUSH32 0x4E487B7100000000000000000000000000000000000000000000000000000000 PUSH1 0x0 MSTORE PUSH1 0x21 PUSH1 0x4 MSTORE PUSH1 0x24 PUSH1 0x0 REVERT JUMPDEST EQ ISZERO PUSH2 0x3A8 JUMPI PUSH1 0x4 PUSH1 0x0 DUP2 SWAP1 SSTORE POP PUSH1 0x4 PUSH1 0x2 DUP2 SWAP1 SSTORE POP PUSH2 0x3B9 JUMP JUMPDEST PUSH1 0x2 PUSH1 0x0 DUP2 SWAP1 SSTORE POP PUSH1 0x8 PUSH1 0x2 DUP2 SWAP1 SSTORE POP JUMPDEST JUMPDEST POP JUMP JUMPDEST PUSH1 0x0 DUP1 PUSH1 0x2 SLOAD PUSH1 0x4 SLOAD PUSH2 0x3D0 SWAP2 SWAP1 PUSH2 0x5F6 JUMP JUMPDEST SWAP1 POP TIMESTAMP DUP2 GT ISZERO PUSH2 0x3EB JUMPI TIMESTAMP PUSH1 0x4 DUP2 SWAP1 SSTORE POP PUSH1 0x1 SWAP2 POP POP PUSH2 0x47F JUMP JUMPDEST PUSH1 0x0 SELFBALANCE SWAP1 POP PUSH1 0x0 PUSH1 0x64 PUSH1 0x0 SLOAD DUP4 PUSH2 0x402 SWAP2 SWAP1 PUSH2 0x67D JUMP JUMPDEST PUSH2 0x40C SWAP2 SWAP1 PUSH2 0x64C JUMP JUMPDEST SWAP1 POP PUSH1 0x5 PUSH1 0x0 SWAP1 SLOAD SWAP1 PUSH2 0x100 EXP SWAP1 DIV PUSH20 0xFFFFFFFFFFFFFFFFFFFFFFFFFFFFFFFFFFFFFFFF AND PUSH20 0xFFFFFFFFFFFFFFFFFFFFFFFFFFFFFFFFFFFFFFFF AND PUSH2 0x8FC DUP3 SWAP1 DUP2 ISZERO MUL SWAP1 PUSH1 0x40 MLOAD PUSH1 0x0 PUSH1 0x40 MLOAD DUP1 DUP4 SUB DUP2 DUP6 DUP9 DUP9 CALL SWAP4 POP POP POP POP ISZERO DUP1 ISZERO PUSH2 0x476 JUMPI RETURNDATASIZE PUSH1 0x0 DUP1 RETURNDATACOPY RETURNDATASIZE PUSH1 0x0 REVERT JUMPDEST POP PUSH1 0x0 SWAP4 POP POP POP POP JUMPDEST SWAP1 JUMP JUMPDEST PUSH1 0x5 PUSH1 0x0 SWAP1 SLOAD SWAP1 PUSH2 0x100 EXP SWAP1 DIV PUSH20 0xFFFFFFFFFFFFFFFFFFFFFFFFFFFFFFFFFFFFFFFF AND DUP2 JUMP JUMPDEST PUSH1 0x4 SLOAD DUP2 JUMP JUMPDEST PUSH1 0x2 SLOAD DUP2 JUMP JUMPDEST DUP1 PUSH1 0x2 DUP2 SWAP1 SSTORE POP POP JUMP JUMPDEST PUSH1 0x0 DUP2 CALLDATALOAD SWAP1 POP PUSH2 0x4CD DUP2 PUSH2 0x77D JUMP JUMPDEST SWAP3 SWAP2 POP POP JUMP JUMPDEST PUSH1 0x0 DUP2 CALLDATALOAD SWAP1 POP PUSH2 0x4E2 DUP2 PUSH2 0x794 JUMP JUMPDEST SWAP3 SWAP2 POP POP JUMP JUMPDEST PUSH1 0x0 DUP2 CALLDATALOAD SWAP1 POP PUSH2 0x4F7 DUP2 PUSH2 0x7A4 JUMP JUMPDEST SWAP3 SWAP2 POP POP JUMP JUMPDEST PUSH1 0x0 PUSH1 0x20 DUP3 DUP5 SUB SLT ISZERO PUSH2 0x50F JUMPI PUSH1 0x0 DUP1 REVERT JUMPDEST PUSH1 0x0 PUSH2 0x51D DUP5 DUP3 DUP6 ADD PUSH2 0x4BE JUMP JUMPDEST SWAP2 POP POP SWAP3 SWAP2 POP POP JUMP JUMPDEST PUSH1 0x0 PUSH1 0x20 DUP3 DUP5 SUB SLT ISZERO PUSH2 0x538 JUMPI PUSH1 0x0 DUP1 REVERT JUMPDEST PUSH1 0x0 PUSH2 0x546 DUP5 DUP3 DUP6 ADD PUSH2 0x4D3 JUMP JUMPDEST SWAP2 POP POP SWAP3 SWAP2 POP POP JUMP JUMPDEST PUSH1 0x0 PUSH1 0x20 DUP3 DUP5 SUB SLT ISZERO PUSH2 0x561 JUMPI PUSH1 0x0 DUP1 REVERT JUMPDEST PUSH1 0x0 PUSH2 0x56F DUP5 DUP3 DUP6 ADD PUSH2 0x4E8 JUMP JUMPDEST SWAP2 POP POP SWAP3 SWAP2 POP POP JUMP JUMPDEST PUSH2 0x581 DUP2 PUSH2 0x6D7 JUMP JUMPDEST DUP3 MSTORE POP POP JUMP JUMPDEST PUSH2 0x590 DUP2 PUSH2 0x6E9 JUMP JUMPDEST DUP3 MSTORE POP POP JUMP JUMPDEST PUSH2 0x59F DUP2 PUSH2 0x715 JUMP JUMPDEST DUP3 MSTORE POP POP JUMP JUMPDEST PUSH1 0x0 PUSH1 0x20 DUP3 ADD SWAP1 POP PUSH2 0x5BA PUSH1 0x0 DUP4 ADD DUP5 PUSH2 0x578 JUMP JUMPDEST SWAP3 SWAP2 POP POP JUMP JUMPDEST PUSH1 0x0 PUSH1 0x20 DUP3 ADD SWAP1 POP PUSH2 0x5D5 PUSH1 0x0 DUP4 ADD DUP5 PUSH2 0x587 JUMP JUMPDEST SWAP3 SWAP2 POP POP JUMP JUMPDEST PUSH1 0x0 PUSH1 0x20 DUP3 ADD SWAP1 POP PUSH2 0x5F0 PUSH1 0x0 DUP4 ADD DUP5 PUSH2 0x596 JUMP JUMPDEST SWAP3 SWAP2 POP POP JUMP JUMPDEST PUSH1 0x0 PUSH2 0x601 DUP3 PUSH2 0x715 JUMP JUMPDEST SWAP2 POP PUSH2 0x60C DUP4 PUSH2 0x715 JUMP JUMPDEST SWAP3 POP DUP3 PUSH32 0xFFFFFFFFFFFFFFFFFFFFFFFFFFFFFFFFFFFFFFFFFFFFFFFFFFFFFFFFFFFFFFFF SUB DUP3 GT ISZERO PUSH2 0x641 JUMPI PUSH2 0x640 PUSH2 0x71F JUMP JUMPDEST JUMPDEST DUP3 DUP3 ADD SWAP1 POP SWAP3 SWAP2 POP POP JUMP JUMPDEST PUSH1 0x0 PUSH2 0x657 DUP3 PUSH2 0x715 JUMP JUMPDEST SWAP2 POP PUSH2 0x662 DUP4 PUSH2 0x715 JUMP JUMPDEST SWAP3 POP DUP3 PUSH2 0x672 JUMPI PUSH2 0x671 PUSH2 0x74E JUMP JUMPDEST JUMPDEST DUP3 DUP3 DIV SWAP1 POP SWAP3 SWAP2 POP POP JUMP JUMPDEST PUSH1 0x0 PUSH2 0x688 DUP3 PUSH2 0x715 JUMP JUMPDEST SWAP2 POP PUSH2 0x693 DUP4 PUSH2 0x715 JUMP JUMPDEST SWAP3 POP DUP2 PUSH32 0xFFFFFFFFFFFFFFFFFFFFFFFFFFFFFFFFFFFFFFFFFFFFFFFFFFFFFFFFFFFFFFFF DIV DUP4 GT DUP3 ISZERO ISZERO AND ISZERO PUSH2 0x6CC JUMPI PUSH2 0x6CB PUSH2 0x71F JUMP JUMPDEST JUMPDEST DUP3 DUP3 MUL SWAP1 POP SWAP3 SWAP2 POP POP JUMP JUMPDEST PUSH1 0x0 PUSH2 0x6E2 DUP3 PUSH2 0x6F5 JUMP JUMPDEST SWAP1 POP SWAP2 SWAP1 POP JUMP JUMPDEST PUSH1 0x0 DUP2 ISZERO ISZERO SWAP1 POP SWAP2 SWAP1 POP JUMP JUMPDEST PUSH1 0x0 PUSH20 0xFFFFFFFFFFFFFFFFFFFFFFFFFFFFFFFFFFFFFFFF DUP3 AND SWAP1 POP SWAP2 SWAP1 POP JUMP JUMPDEST PUSH1 0x0 DUP2 SWAP1 POP SWAP2 SWAP1 POP JUMP JUMPDEST PUSH32 0x4E487B7100000000000000000000000000000000000000000000000000000000 PUSH1 0x0 MSTORE PUSH1 0x11 PUSH1 0x4 MSTORE PUSH1 0x24 PUSH1 0x0 REVERT JUMPDEST PUSH32 0x4E487B7100000000000000000000000000000000000000000000000000000000 PUSH1 0x0 MSTORE PUSH1 0x12 PUSH1 0x4 MSTORE PUSH1 0x24 PUSH1 0x0 REVERT JUMPDEST PUSH2 0x786 DUP2 PUSH2 0x6D7 JUMP JUMPDEST DUP2 EQ PUSH2 0x791 JUMPI PUSH1 0x0 DUP1 REVERT JUMPDEST POP JUMP JUMPDEST PUSH1 0x3 DUP2 LT PUSH2 0x7A1 JUMPI PUSH1 0x0 DUP1 REVERT JUMPDEST POP JUMP JUMPDEST PUSH2 0x7AD DUP2 PUSH2 0x715 JUMP JUMPDEST DUP2 EQ PUSH2 0x7B8 JUMPI PUSH1 0x0 DUP1 REVERT JUMPDEST POP JUMP INVALID LOG2 PUSH5 0x6970667358 0x22 SLT KECCAK256 RETURN 0xE1 SELFBALANCE PUSH5 0xD329ACA924 0xCF 0xA6 0x2A PUSH16 0x928550D3438E29E860CEF623F0CDA2BF PUSH27 0xEC9364736F6C634300080400330000000000000000000000000000 "
        },
        "methodIdentifiers": {
          "checkIn()": "183ff085",
          "frequency()": "ead50da3",
          "increaseRate()": "2a4b122f",
          "lastCheckIn()": "db78dabd",
          "rate()": "2c4e722e",
          "recipient()": "66d003ac",
          "setFrequency(uint256)": "f426f03a",
          "setPlan(uint8)": "3c101c8f",
          "setRecipient(address)": "3bbed4a0",
          "startDate()": "0b97bc86",
          "userCheckedin()": "6086cea5"
        }
      }
    }
  }
}